{
  "contractName": "MicroFinance",
  "abi": [
    {
      "constant": true,
      "inputs": [],
      "name": "DEADLINE",
      "outputs": [
        {
          "name": "",
          "type": "uint256"
        }
      ],
      "payable": false,
      "stateMutability": "view",
      "type": "function"
    },
    {
      "constant": true,
      "inputs": [],
      "name": "MAXIUM_BORROW",
      "outputs": [
        {
          "name": "",
          "type": "uint256"
        }
      ],
      "payable": false,
      "stateMutability": "view",
      "type": "function"
    },
    {
      "payable": true,
      "stateMutability": "payable",
      "type": "fallback"
    },
    {
      "anonymous": false,
      "inputs": [
        {
          "indexed": false,
          "name": "borrower",
          "type": "address"
        },
        {
          "indexed": false,
          "name": "amount",
          "type": "uint256"
        },
        {
          "indexed": false,
          "name": "timeOut",
          "type": "uint256"
        }
      ],
      "name": "NewLoan",
      "type": "event"
    },
    {
      "anonymous": false,
      "inputs": [
        {
          "indexed": true,
          "name": "timeOut",
          "type": "uint256"
        },
        {
          "indexed": true,
          "name": "borrower",
          "type": "address"
        }
      ],
      "name": "DoneInDeadline",
      "type": "event"
    },
    {
      "anonymous": false,
      "inputs": [
        {
          "indexed": true,
          "name": "timeOut",
          "type": "uint256"
        },
        {
          "indexed": true,
          "name": "borrower",
          "type": "address"
        }
      ],
      "name": "DoneBeforeDeadline",
      "type": "event"
    },
    {
      "anonymous": false,
      "inputs": [
        {
          "indexed": false,
          "name": "borrower",
          "type": "address"
        }
      ],
      "name": "Failed",
      "type": "event"
    },
    {
      "constant": false,
      "inputs": [
        {
          "name": "_amount",
          "type": "uint256"
        }
      ],
      "name": "createLoan",
      "outputs": [
        {
          "name": "success",
          "type": "bool"
        }
      ],
      "payable": false,
      "stateMutability": "nonpayable",
      "type": "function"
    },
    {
      "constant": false,
      "inputs": [
        {
          "name": "_borrower",
          "type": "address"
        }
      ],
      "name": "sendLoanInDeadline",
      "outputs": [
        {
          "name": "success",
          "type": "bool"
        }
      ],
      "payable": false,
      "stateMutability": "nonpayable",
      "type": "function"
    },
    {
      "constant": false,
      "inputs": [
        {
          "name": "_borrower",
          "type": "address"
        }
      ],
      "name": "sendLoanBeforeDeadline",
      "outputs": [
        {
          "name": "success",
          "type": "bool"
        }
      ],
      "payable": false,
      "stateMutability": "nonpayable",
      "type": "function"
    },
    {
      "constant": false,
      "inputs": [
        {
          "name": "_borrower",
          "type": "address"
        }
      ],
      "name": "failed",
      "outputs": [
        {
          "name": "success",
          "type": "bool"
        }
      ],
      "payable": false,
      "stateMutability": "nonpayable",
      "type": "function"
    }
  ],
  "bytecode": "0x608060405234801561001057600080fd5b50610fb1806100206000396000f300608060405260043610610078576000357c0100000000000000000000000000000000000000000000000000000000900463ffffffff16806321312b1a1461007d5780632b770571146100d85780639a4e8ecf14610133578063a082c86e14610178578063c1199851146101a3578063ec46fa83146101ce575b600080fd5b34801561008957600080fd5b506100be600480360381019080803573ffffffffffffffffffffffffffffffffffffffff169060200190929190505050610229565b604051808215151515815260200191505060405180910390f35b3480156100e457600080fd5b50610119600480360381019080803573ffffffffffffffffffffffffffffffffffffffff1690602001909291905050506105fc565b604051808215151515815260200191505060405180910390f35b34801561013f57600080fd5b5061015e6004803603810190808035906020019092919050505061087d565b604051808215151515815260200191505060405180910390f35b34801561018457600080fd5b5061018d610a9b565b6040518082815260200191505060405180910390f35b3480156101af57600080fd5b506101b8610aa2565b6040518082815260200191505060405180910390f35b3480156101da57600080fd5b5061020f600480360381019080803573ffffffffffffffffffffffffffffffffffffffff169060200190929190505050610aae565b604051808215151515815260200191505060405180910390f35b6000610233610f19565b60006203f48061028e600160008773ffffffffffffffffffffffffffffffffffffffff1673ffffffffffffffffffffffffffffffffffffffff1681526020019081526020016000206002015442610e9690919063ffffffff16565b14151561029a57600080fd5b600160008573ffffffffffffffffffffffffffffffffffffffff1673ffffffffffffffffffffffffffffffffffffffff16815260200190815260200160002060e060405190810160405290816000820160009054906101000a900473ffffffffffffffffffffffffffffffffffffffff1673ffffffffffffffffffffffffffffffffffffffff1673ffffffffffffffffffffffffffffffffffffffff168152602001600182015481526020016002820154815260200160038201548152602001600482015481526020016005820160009054906101000a900473ffffffffffffffffffffffffffffffffffffffff1673ffffffffffffffffffffffffffffffffffffffff1673ffffffffffffffffffffffffffffffffffffffff1681526020016005820160149054906101000a900460ff16151515158152505091506104178260200151610409600a6103fb60648760200151610eaf90919063ffffffff16565b610ec590919063ffffffff16565b610efd90919063ffffffff16565b905060018260c0019015159081151581525050600082608001818152505042826060018181525050600082604001818152505081600160008673ffffffffffffffffffffffffffffffffffffffff1673ffffffffffffffffffffffffffffffffffffffff16815260200190815260200160002060008201518160000160006101000a81548173ffffffffffffffffffffffffffffffffffffffff021916908373ffffffffffffffffffffffffffffffffffffffff1602179055506020820151816001015560408201518160020155606082015181600301556080820151816004015560a08201518160050160006101000a81548173ffffffffffffffffffffffffffffffffffffffff021916908373ffffffffffffffffffffffffffffffffffffffff16021790555060c08201518160050160146101000a81548160ff0219169083151502179055509050503373ffffffffffffffffffffffffffffffffffffffff166108fc829081150290604051600060405180830381858888f193505050501580156105a9573d6000803e3d6000fd5b508373ffffffffffffffffffffffffffffffffffffffff166203f4807f1e2fac8f528d3001a855fc5d0c7f873ead32bd480cc0d57d71574ed2117e9d9f60405160405180910390a3600192505050919050565b6000610606610f19565b6203f48061065f600160008673ffffffffffffffffffffffffffffffffffffffff1673ffffffffffffffffffffffffffffffffffffffff1681526020019081526020016000206002015442610e9690919063ffffffff16565b10151561066b57600080fd5b600160008473ffffffffffffffffffffffffffffffffffffffff1673ffffffffffffffffffffffffffffffffffffffff16815260200190815260200160002060e060405190810160405290816000820160009054906101000a900473ffffffffffffffffffffffffffffffffffffffff1673ffffffffffffffffffffffffffffffffffffffff1673ffffffffffffffffffffffffffffffffffffffff168152602001600182015481526020016002820154815260200160038201548152602001600482015481526020016005820160009054906101000a900473ffffffffffffffffffffffffffffffffffffffff1673ffffffffffffffffffffffffffffffffffffffff1673ffffffffffffffffffffffffffffffffffffffff1681526020016005820160149054906101000a900460ff161515151581525050905060008160c0019015159081151581525050600081608001818152505042816060018181525050600081604001818152505033816000019073ffffffffffffffffffffffffffffffffffffffff16908173ffffffffffffffffffffffffffffffffffffffff16815250507fb05e40a9be76380d6c1987d37f213490f51e2b7156ba2f5b9d07c7b78ca8454f83604051808273ffffffffffffffffffffffffffffffffffffffff1673ffffffffffffffffffffffffffffffffffffffff16815260200191505060405180910390a16001915050919050565b6000610887610f19565b3360011515600160008373ffffffffffffffffffffffffffffffffffffffff1673ffffffffffffffffffffffffffffffffffffffff16815260200190815260200160002060050160149054906101000a900460ff1615151415156108ea57600080fd5b83670de0b6b3a76400008110151561090157600080fd5b33836000019073ffffffffffffffffffffffffffffffffffffffff16908173ffffffffffffffffffffffffffffffffffffffff168152505084836020018181525050620151808360800181815250504283604001818152505082600160003373ffffffffffffffffffffffffffffffffffffffff1673ffffffffffffffffffffffffffffffffffffffff16815260200190815260200160002060008201518160000160006101000a81548173ffffffffffffffffffffffffffffffffffffffff021916908373ffffffffffffffffffffffffffffffffffffffff1602179055506020820151816001015560408201518160020155606082015181600301556080820151816004015560a08201518160050160006101000a81548173ffffffffffffffffffffffffffffffffffffffff021916908373ffffffffffffffffffffffffffffffffffffffff16021790555060c08201518160050160146101000a81548160ff021916908315150217905550905050610a896001600054610efd90919063ffffffff16565b60008190555060019350505050919050565b6201518081565b670de0b6b3a764000081565b6000610ab8610f19565b60006203f480610b13600160008773ffffffffffffffffffffffffffffffffffffffff1673ffffffffffffffffffffffffffffffffffffffff1681526020019081526020016000206002015442610e9690919063ffffffff16565b101515610b1f57600080fd5b600160008573ffffffffffffffffffffffffffffffffffffffff1673ffffffffffffffffffffffffffffffffffffffff16815260200190815260200160002060e060405190810160405290816000820160009054906101000a900473ffffffffffffffffffffffffffffffffffffffff1673ffffffffffffffffffffffffffffffffffffffff1673ffffffffffffffffffffffffffffffffffffffff168152602001600182015481526020016002820154815260200160038201548152602001600482015481526020016005820160009054906101000a900473ffffffffffffffffffffffffffffffffffffffff1673ffffffffffffffffffffffffffffffffffffffff1673ffffffffffffffffffffffffffffffffffffffff1681526020016005820160149054906101000a900460ff16151515158152505091508160200151905060018260c0019015159081151581525050600082608001818152505042826060018181525050600082604001818152505081600160008673ffffffffffffffffffffffffffffffffffffffff1673ffffffffffffffffffffffffffffffffffffffff16815260200190815260200160002060008201518160000160006101000a81548173ffffffffffffffffffffffffffffffffffffffff021916908373ffffffffffffffffffffffffffffffffffffffff1602179055506020820151816001015560408201518160020155606082015181600301556080820151816004015560a08201518160050160006101000a81548173ffffffffffffffffffffffffffffffffffffffff021916908373ffffffffffffffffffffffffffffffffffffffff16021790555060c08201518160050160146101000a81548160ff0219169083151502179055509050503373ffffffffffffffffffffffffffffffffffffffff166108fc829081150290604051600060405180830381858888f19350505050158015610df2573d6000803e3d6000fd5b508373ffffffffffffffffffffffffffffffffffffffff16610e5f600160008773ffffffffffffffffffffffffffffffffffffffff1673ffffffffffffffffffffffffffffffffffffffff1681526020019081526020016000206002015442610e9690919063ffffffff16565b7f2f270f345a893941885cf89fc511ef9d388b8c1aae4cbf0c974068a2022b48d260405160405180910390a3600192505050919050565b6000828211151515610ea457fe5b818303905092915050565b60008183811515610ebc57fe5b04905092915050565b600080831415610ed85760009050610ef7565b8183029050818382811515610ee957fe5b04141515610ef357fe5b8090505b92915050565b60008183019050828110151515610f1057fe5b80905092915050565b60e060405190810160405280600073ffffffffffffffffffffffffffffffffffffffff16815260200160008152602001600081526020016000815260200160008152602001600073ffffffffffffffffffffffffffffffffffffffff16815260200160001515815250905600a165627a7a723058203042899da94faaf50012637da3e84638c1221da7b5bf4b7384cf28796e6d83f20029",
  "source": "pragma solidity ^0.4.23;\r\n\r\n// @title microFinance - Allow borrower to borrow loan in 3days\r\n// @author Son Do Phuc\r\n\r\nlibrary SafeMath {\r\n    function mul(uint256 a, uint256 b) internal pure returns (uint256 c) {\r\n        if (a == 0) {\r\n            return 0;\r\n        }\r\n        c = a * b;\r\n        assert(c / a == b);\r\n        return c;\r\n    }\r\n\r\n    function div(uint256 a, uint256 b) internal pure returns (uint256) {\r\n        return a / b;\r\n    }\r\n\r\n    function sub(uint256 a, uint256 b) internal pure returns (uint256) {\r\n        assert(b <= a);\r\n        return a - b;\r\n    }\r\n\r\n    function add(uint256 a, uint256 b) internal pure returns (uint256 c) {\r\n        c = a + b;\r\n        assert(c >= a);\r\n        return c;\r\n    }\r\n}\r\n\r\ncontract MicroFinance {\r\n    using SafeMath for uint256;\r\n    uint256 internal totalLoan;\r\n    /*\r\n     *  CONSTANTS\r\n     */\r\n    uint256 constant public MAXIUM_BORROW = 1 ether;\r\n    uint256 constant public DEADLINE = 1 days;\r\n\r\n    function() public payable {\r\n        revert();\r\n    }\r\n\r\n    struct Loan {\r\n        address receiver;\r\n        uint256 amount;\r\n        uint256 start;\r\n        uint256 end;\r\n        uint256 timeOut;\r\n        address borrower;\r\n        bool completed;\r\n    }\r\n\r\n    mapping(address => Loan) microFinaces;\r\n\r\n    /*\r\n     *  EVENTS\r\n     */\r\n    event NewLoan(address borrower, uint256 amount, uint256 timeOut);\r\n    //done loan in deadline\r\n    event DoneInDeadline(uint256 indexed timeOut, address indexed borrower );\r\n    //done before deadline\r\n    event DoneBeforeDeadline(uint256 indexed timeOut, address indexed borrower);\r\n    // fail in loan\r\n    event Failed(address borrower);\r\n\r\n    /*\r\n     *  Modifiers\r\n     */\r\n    // only accept loan which is under 1 ether\r\n    modifier onlyValidLoan(uint256 amount) {\r\n        require(amount < MAXIUM_BORROW);\r\n        _;\r\n    }\r\n\r\n    //only accept user which wasn't in blacklist\r\n    modifier onlyOutOfBlackList(address borrower) {\r\n        require(microFinaces[borrower].completed == true);\r\n        _;\r\n    }\r\n\r\n    modifier onlyValidTimeout(uint256 timeOut) {\r\n        require(timeOut < 3 days);\r\n        _;\r\n    }\r\n\r\n    modifier onlyCreatorOfContract(address borrower) {\r\n        require(borrower == msg.sender);\r\n        _;\r\n    }\r\n\r\n    modifier onlyNotCompleted(address borrower) {\r\n        require(microFinaces[borrower].completed == false);\r\n        _;\r\n    }\r\n\r\n    /*\r\n     *  FUNCTIONS\r\n     */\r\n    /// @dev createLoan function allows users to create a new Loan\r\n    /// @param _amount  Amount which user want to borrow\r\n    function createLoan(uint256 _amount) public onlyOutOfBlackList(msg.sender) onlyValidLoan(_amount) returns(bool success) {\r\n        Loan memory newLoan;\r\n\r\n        newLoan.receiver = msg.sender;\r\n        newLoan.amount = _amount;\r\n        newLoan.timeOut = DEADLINE;\r\n        newLoan.start = block.timestamp;\r\n\r\n        //triger event\r\n        // emit newLoan( msg.sender, _amount, DEADLINE);\r\n\r\n        //append this loan to microFinaces map\r\n        microFinaces[msg.sender] = newLoan;\r\n\r\n        totalLoan = totalLoan.add(1);\r\n\r\n        return true;\r\n    }\r\n\r\n    /// @dev sendLoanToReceiver function allows users to be received Loan\r\n    /// @param _amount  Amount which user is received\r\n    /// @param _receiver address of receiver\r\n    function sendLoanToReceiver(address _receiver, uint256 _amount) internal \r\n            onlyOutOfBlackList(_receiver) \r\n            onlyValidLoan(_amount) returns(bool success) {\r\n        microFinaces[_receiver].receiver.transfer(_amount);\r\n        return true;\r\n    }\r\n\r\n    /// @dev sendLoanInDeadline function allows users to send Loan back\r\n    /// @param _borrower address of required comfirmations\r\n    function sendLoanInDeadline(address _borrower) public returns (bool success) {\r\n        require(now.sub(microFinaces[_borrower].start) == 3 days);\r\n\r\n        //get temporary object\r\n        Loan memory mLoan = microFinaces[_borrower];\r\n\r\n        // value must be pay if someone send it in deadline\r\n        uint256 value = ((mLoan.amount.div(100)).mul(10)).add(mLoan.amount);\r\n        mLoan.completed = true;\r\n        mLoan.timeOut = 0;\r\n        mLoan.end = block.timestamp;\r\n        mLoan.start = 0;\r\n\r\n        //update data set\r\n        microFinaces[_borrower] = mLoan;\r\n\r\n        //_borrower lost 10% loan\r\n        msg.sender.transfer(value);\r\n\r\n        emit DoneInDeadline(3 days, _borrower);\r\n        return true;\r\n    }\r\n\r\n    /// @dev sendLoanBeforeDeadline function allows users to send Loan back in deadline\r\n    /// @param _borrower address of required comfirmations\r\n    function sendLoanBeforeDeadline(address _borrower) public returns(bool success){\r\n        require(now.sub(microFinaces[_borrower].start) < 3 days);\r\n\r\n        Loan memory mLoan = microFinaces[_borrower];\r\n\r\n        // value must be pay if someone send it before deadline\r\n        uint256 value = mLoan.amount;\r\n        mLoan.completed = true;\r\n        mLoan.timeOut = 0;\r\n        mLoan.end = block.timestamp;\r\n        mLoan.start = 0;\r\n\r\n        //update data set\r\n        microFinaces[_borrower] = mLoan;\r\n\r\n        // borrower pay back to contract loan\r\n        msg.sender.transfer(value);\r\n\r\n        emit DoneBeforeDeadline (now.sub(microFinaces[_borrower].start), _borrower);\r\n\r\n        return true;\r\n    }\r\n\r\n    /// @dev failed function allows users to comfirm Loan which is failed\r\n    /// @param _borrower address of required comfirmations\r\n    function failed(address _borrower) public returns (bool success){\r\n        require(now.sub(microFinaces[_borrower].start) < 3 days);\r\n\r\n        // set temporary object\r\n        Loan memory mLoan = microFinaces[_borrower];\r\n\r\n        // add _borrower into blacklist\r\n        mLoan.completed = false;\r\n        mLoan.timeOut = 0;\r\n        mLoan.end = block.timestamp;\r\n        mLoan.start = 0;\r\n        mLoan.receiver = msg.sender;\r\n\r\n        emit Failed(_borrower);\r\n        return true;\r\n    }\r\n\r\n}\r\n",
  "sourcePath": "D:\\code\\blockchain\\truffle\\micro-finance-1\\contract\\contracts\\MicroFinance.sol",
  "compiler": {
    "name": "solc",
    "version": "0.4.24+commit.e67f0147.Emscripten.clang"
  },
  "schemaVersion": "2.0.1",
  "updatedAt": "2018-07-18T03:56:52.896Z"
}